{"address":"0x7845fF302E85389E88c12F24D9cF479A56e3Dab0","bytecode":"0x608060405234801561000f575f80fd5b506040516123ef3803806123ef83398101604081905261002e91610137565b826001600160a01b03811661005c57604051631e4fbdf760e01b81525f600482015260240160405180910390fd5b610065816100cd565b5060018055600d80546001600160a01b038085166001600160a01b03199283161790925560088054928416929091169190911790556040805180820190915260068152651899199a1a9b60d11b60208201526009906100c4908261020f565b505050506102ce565b5f80546001600160a01b038381166001600160a01b0319831681178455604051919092169283917f8be0079c531659141344cd1fd0a4f28419497f9722a3daafe3b4186f6b6457e09190a35050565b80516001600160a01b0381168114610132575f80fd5b919050565b5f805f60608486031215610149575f80fd5b6101528461011c565b92506101606020850161011c565b915061016e6040850161011c565b90509250925092565b634e487b7160e01b5f52604160045260245ffd5b600181811c9082168061019f57607f821691505b6020821081036101bd57634e487b7160e01b5f52602260045260245ffd5b50919050565b601f82111561020a57805f5260205f20601f840160051c810160208510156101e85750805b601f840160051c820191505b81811015610207575f81556001016101f4565b50505b505050565b81516001600160401b0381111561022857610228610177565b61023c81610236845461018b565b846101c3565b602080601f83116001811461026f575f84156102585750858301515b5f19600386901b1c1916600185901b1785556102c6565b5f85815260208120601f198616915b8281101561029d5788860151825594840194600190910190840161027e565b50858210156102ba57878501515f19600388901b60f8161c191681555b505060018460011b0185555b505050505050565b612114806102db5f395ff3fe60806040526004361061014a575f3560e01c80638193efaa116100b3578063ae438db11161006d578063ae438db114610489578063b2745564146104aa578063d37b2d14146104bf578063ecfb49a3146104de578063ed88c68e146104f3578063f2fde38b146104fb575f80fd5b80638193efaa146103a157806381d12c58146103c0578063846ed207146103f25780638da5cb5b146104235780639bf070b61461043f578063a1b45b581461045e575f80fd5b80634681fdd2116101045780634681fdd2146102d85780635d97b3cd146102f757806366fa7c46146103165780636a84a98514610355578063715018a61461036a578063748d511a1461037e575f80fd5b806311d7184d146101d157806313d4d9721461020d5780632d9e33c8146102315780632fbde6b31461025057806338d212421461028e578063401fb22b146102b9575f80fd5b366101cd573460035f8282546101609190611564565b9091555050335f9081526007602052604081208054349290610183908490611564565b90915550506040805134815242602082015233917fd97bcdf12fa1d5342fc942da5eadf35c7597f34f8da7274c2b0d2ad979842679910160405180910390a26101cb3361051a565b005b5f80fd5b3480156101dc575f80fd5b506008546101f0906001600160a01b031681565b6040516001600160a01b0390911681526020015b60405180910390f35b348015610218575f80fd5b50610223620f424081565b604051908152602001610204565b34801561023c575f80fd5b5061022361024b3660046115c2565b610612565b34801561025b575f80fd5b5061027e61026a366004611636565b60056020525f908152604090205460ff1681565b6040519015158152602001610204565b348015610299575f80fd5b506102236102a8366004611671565b60076020525f908152604090205481565b3480156102c4575f80fd5b5061027e6102d33660046116a2565b6107eb565b3480156102e3575f80fd5b506101cb6102f2366004611636565b61086a565b348015610302575f80fd5b506101cb610311366004611636565b610966565b348015610321575f80fd5b50610335610330366004611671565b61097a565b604080519485526020850193909352918301526060820152608001610204565b348015610360575f80fd5b5061022360025481565b348015610375575f80fd5b506101cb610a61565b348015610389575f80fd5b50610392610a74565b6040516102049392919061171f565b3480156103ac575f80fd5b506101cb6103bb366004611752565b610b28565b3480156103cb575f80fd5b506103df6103da366004611636565b610e73565b60405161020497969594939291906117bd565b3480156103fd575f80fd5b5061041161040c366004611636565b610fd1565b60405161020496959493929190611817565b34801561042e575f80fd5b505f546001600160a01b03166101f0565b34801561044a575f80fd5b50610223610459366004611636565b61109a565b348015610469575f80fd5b50610223610478366004611671565b60066020525f908152604090205481565b348015610494575f80fd5b5061049d6110b9565b604051610204919061185e565b3480156104b5575f80fd5b5061022360045481565b3480156104ca575f80fd5b50600d546101f0906001600160a01b031681565b3480156104e9575f80fd5b5061022360035481565b6101cb611145565b348015610506575f80fd5b506101cb610515366004611671565b6111fb565b6001600160a01b0381165f9081526007602090815260408083205460069092528220546105479190611564565b9050678ac7230489e80000811061060e57600d5460405163128dbdb960e21b81526001600160a01b0384811660048301525f921690634a36f6e4906024016020604051808303815f875af11580156105a1573d5f803e3d5ffd5b505050506040513d601f19601f820116820180604052508101906105c59190611870565b60408051828152602081018590529192506001600160a01b038516917f3f1171297c35ca225263338ac9a229d96149e8c1eea55d597eaa85b135f8640a910160405180910390a2505b5050565b600280545f918291908261062583611887565b90915550604080516101206020601f8b01819004028201810190925261010081018981529293509182918a908a90819085018382808284375f920191909152505050908252503360208083019190915260408051601f880183900483028101830182528781529201919087908790819084018382808284375f9201829052509385525050506020808301899052604080840183905260608401839052608084018390528051838152808301825260a090940193909352848252600a905220815181906106f19082611931565b5060208201516001820180546001600160a01b0319166001600160a01b039092169190911790556040820151600282019061072c9082611931565b5060608201516003820155608082015160048201805460a085015115156101000261ff00199315159390931661ffff199091161791909117905560c0820151600582015560e0820151805161078b9160068401916020909101906114d9565b50905050807fe0b645c4fd45ece69cc31b0f8633c801e9e2b98a2b1a429efa597f1dace80f6088888888886040516107c7959493929190611a19565b60405180910390a284600354106107e1576107e181611235565b9695505050505050565b5f806107f5611365565b6040516358fbe9e160e01b81529091506001600160a01b038216906358fbe9e190610824908690600401611d9f565b602060405180830381865afa15801561083f573d5f803e3d5ffd5b505050506040513d601f19601f820116820180604052508101906108639190611edd565b9392505050565b610872611434565b5f818152600a60205260409020600481015460ff166108c55760405162461bcd60e51b815260206004820152600a602482015269139bdd08199d5b99195960b21b60448201526064015b60405180910390fd5b6004810154610100900460ff161561090e5760405162461bcd60e51b815260206004820152600c60248201526b105b1c9958591e481c185a5960a21b60448201526064016108bc565b60048101805461ff001916610100179055600381015460405183917f1d6c1911dff15af6ed91890c881c1b34646051b66fd5a2bde246eb7c8ee0e7569161095a91906002860190611f71565b60405180910390a25050565b61096e611434565b61097781611235565b50565b6001600160a01b0381165f9081526006602090815260408083205460079092528220549091806109aa8385611564565b91505f90505f5b600254811015610a59575f818152600a602052604090206004015460ff1615610a51575f5b5f828152600a6020526040902060060154811015610a4f575f828152600a6020526040902060060180546001600160a01b038916919083908110610a1c57610a1c611f89565b5f918252602090912001546001600160a01b031603610a475782610a3f81611887565b935050610a4f565b6001016109d6565b505b6001016109b1565b509193509193565b610a69611434565b610a725f611460565b565b5f60605f60085f9054906101000a90046001600160a01b03166009620f4240818054610a9f906118b3565b80601f0160208091040260200160405190810160405280929190818152602001828054610acb906118b3565b8015610b165780601f10610aed57610100808354040283529160200191610b16565b820191905f5260205f20905b815481529060010190602001808311610af957829003601f168201915b50505050509150925092509250909192565b610b306114af565b5f610b3e6020860186611f9d565b610b4c906080810190611fbb565b355f8181526005602052604090205490915060ff1615610bae5760405162461bcd60e51b815260206004820152601d60248201527f5472616e73616374696f6e20616c72656164792070726f63657373656400000060448201526064016108bc565b610bb7856107eb565b610c035760405162461bcd60e51b815260206004820152601e60248201527f496e76616c6964205852504c207472616e73616374696f6e2070726f6f66000060448201526064016108bc565b5f818152600560205260408120805460ff19166001179055610c28620f424084611fcf565b9050670de0b6b3a7640000811015610c825760405162461bcd60e51b815260206004820152601860248201527f4d696e696d756d20646f6e6174696f6e206e6f74206d6574000000000000000060448201526064016108bc565b8260045f828254610c939190611564565b925050819055508060035f828254610cab9190611564565b9091555050335f9081526006602052604081208054859290610cce908490611564565b90915550506040515f90610cec908790879033904290602001611fee565b6040516020818303038152906040528051906020012090506040518060c00160405280336001600160a01b0316815260200183815260200185815260200142815260200187878080601f0160208091040260200160405190810160405280939291908181526020018383808284375f920182905250938552505060016020938401819052858352600b8452604092839020855181546001600160a01b0319166001600160a01b0390911617815593850151908401555082015160028201556060820151600382015560808201516004820190610dc89082611931565b5060a091909101516005909101805460ff1916911515919091179055600c80546001810182555f919091527fdf6966c971051c3d54ec59162606531493a51404a002842f56009d7e5cf4a8c70181905560405133907f1d58ae764d4ee47d6fb4cd691ccb1c215b66fd1a23940dd16cc230c2aea6181790610e509087908a908a90889061201e565b60405180910390a2610e613361051a565b505050610e6d60018055565b50505050565b600a6020525f9081526040902080548190610e8d906118b3565b80601f0160208091040260200160405190810160405280929190818152602001828054610eb9906118b3565b8015610f045780601f10610edb57610100808354040283529160200191610f04565b820191905f5260205f20905b815481529060010190602001808311610ee757829003601f168201915b505050600184015460028501805494956001600160a01b03909216949193509150610f2e906118b3565b80601f0160208091040260200160405190810160405280929190818152602001828054610f5a906118b3565b8015610fa55780601f10610f7c57610100808354040283529160200191610fa5565b820191905f5260205f20905b815481529060010190602001808311610f8857829003601f168201915b505050600384015460048501546005909501549394909360ff8083169450610100909204909116915087565b600b6020525f9081526040902080546001820154600283015460038401546004850180546001600160a01b0390951695939492939192611010906118b3565b80601f016020809104026020016040519081016040528092919081815260200182805461103c906118b3565b80156110875780601f1061105e57610100808354040283529160200191611087565b820191905f5260205f20905b81548152906001019060200180831161106a57829003601f168201915b5050506005909301549192505060ff1686565b600c81815481106110a9575f80fd5b5f91825260209091200154905081565b600980546110c6906118b3565b80601f01602080910402602001604051908101604052809291908181526020018280546110f2906118b3565b801561113d5780601f106111145761010080835404028352916020019161113d565b820191905f5260205f20905b81548152906001019060200180831161112057829003601f168201915b505050505081565b5f34116111865760405162461bcd60e51b815260206004820152600f60248201526e4d7573742073656e642076616c756560881b60448201526064016108bc565b3460035f8282546111979190611564565b9091555050335f90815260076020526040812080543492906111ba908490611564565b90915550506040805134815242602082015233917fd97bcdf12fa1d5342fc942da5eadf35c7597f34f8da7274c2b0d2ad979842679910160405180910390a2565b611203611434565b6001600160a01b03811661122c57604051631e4fbdf760e01b81525f60048201526024016108bc565b61097781611460565b5f818152600a60205260409020600481015460ff16156112885760405162461bcd60e51b815260206004820152600e60248201526d105b1c9958591e48199d5b99195960921b60448201526064016108bc565b806003015460035410156112d25760405162461bcd60e51b8152602060048201526011602482015270125b9cdd59999a58da595b9d081c1bdbdb607a1b60448201526064016108bc565b60048101805460ff1916600117905542600582015560038082015481549091905f906112ff908490612048565b90915550506006810180546001810182555f828152602090200180546001600160a01b03191633179055600382015460405184927f2203c9a905ca577b515bf59afc8d4fbe417c7c6af7419272964ea1defaaa889e9261095a929091600287019161205b565b5f73ad67fe66660fb8dfe9d6b1b4240d8650e30f60196001600160a01b031663159354a26040516020016113bc906020808252600f908201526e233231ab32b934b334b1b0ba34b7b760891b604082015260600190565b604051602081830303815290604052805190602001206040518263ffffffff1660e01b81526004016113f091815260200190565b602060405180830381865afa15801561140b573d5f803e3d5ffd5b505050506040513d601f19601f8201168201806040525081019061142f91906120c3565b905090565b5f546001600160a01b03163314610a725760405163118cdaa760e01b81523360048201526024016108bc565b5f80546001600160a01b038381166001600160a01b0319831681178455604051919092169283917f8be0079c531659141344cd1fd0a4f28419497f9722a3daafe3b4186f6b6457e09190a35050565b6002600154036114d257604051633ee5aeb560e01b815260040160405180910390fd5b6002600155565b828054828255905f5260205f2090810192821561152c579160200282015b8281111561152c57825182546001600160a01b0319166001600160a01b039091161782556020909201916001909101906114f7565b5061153892915061153c565b5090565b5b80821115611538575f815560010161153d565b634e487b7160e01b5f52601160045260245ffd5b8082018082111561157757611577611550565b92915050565b5f8083601f84011261158d575f80fd5b50813567ffffffffffffffff8111156115a4575f80fd5b6020830191508360208285010111156115bb575f80fd5b9250929050565b5f805f805f606086880312156115d6575f80fd5b853567ffffffffffffffff808211156115ed575f80fd5b6115f989838a0161157d565b9097509550602088013594506040880135915080821115611618575f80fd5b506116258882890161157d565b969995985093965092949392505050565b5f60208284031215611646575f80fd5b5035919050565b6001600160a01b0381168114610977575f80fd5b803561166c8161164d565b919050565b5f60208284031215611681575f80fd5b81356108638161164d565b5f6040828403121561169c575f80fd5b50919050565b5f602082840312156116b2575f80fd5b813567ffffffffffffffff8111156116c8575f80fd5b6116d48482850161168c565b949350505050565b5f81518084525f5b81811015611700576020818501810151868301820152016116e4565b505f602082860101526020601f19601f83011685010191505092915050565b6001600160a01b03841681526060602082018190525f90611742908301856116dc565b9050826040830152949350505050565b5f805f8060608587031215611765575f80fd5b843567ffffffffffffffff8082111561177c575f80fd5b6117888883890161168c565b9550602087013591508082111561179d575f80fd5b506117aa8782880161157d565b9598909750949560400135949350505050565b60e081525f6117cf60e083018a6116dc565b6001600160a01b038916602084015282810360408401526117f081896116dc565b60608401979097525050921515608084015290151560a083015260c0909101529392505050565b60018060a01b038716815285602082015284604082015283606082015260c060808201525f61184960c08301856116dc565b905082151560a0830152979650505050505050565b602081525f61086360208301846116dc565b5f60208284031215611880575f80fd5b5051919050565b5f6001820161189857611898611550565b5060010190565b634e487b7160e01b5f52604160045260245ffd5b600181811c908216806118c757607f821691505b60208210810361169c57634e487b7160e01b5f52602260045260245ffd5b601f82111561192c57805f5260205f20601f840160051c8101602085101561190a5750805b601f840160051c820191505b81811015611929575f8155600101611916565b50505b505050565b815167ffffffffffffffff81111561194b5761194b61189f565b61195f8161195984546118b3565b846118e5565b602080601f831160018114611992575f841561197b5750858301515b5f19600386901b1c1916600185901b1785556119e9565b5f85815260208120601f198616915b828110156119c0578886015182559484019460019091019084016119a1565b50858210156119dd57878501515f19600388901b60f8161c191681555b505060018460011b0185555b505050505050565b81835281816020850137505f828201602090810191909152601f909101601f19169091010190565b606081525f611a2c6060830187896119f1565b8560208401528281036040840152611a458185876119f1565b98975050505050505050565b5f808335601e19843603018112611a66575f80fd5b830160208101925035905067ffffffffffffffff811115611a85575f80fd5b8060051b36038213156115bb575f80fd5b8183525f6001600160fb1b03831115611aad575f80fd5b8260051b80836020870137939093016020019392505050565b803567ffffffffffffffff8116811461166c575f80fd5b5f8235609e19833603018112611af1575f80fd5b90910192915050565b8015158114610977575f80fd5b803561166c81611afa565b803563ffffffff8116811461166c575f80fd5b8183525f60208085019450825f5b85811015611b5c5763ffffffff611b4983611b12565b1687529582019590820190600101611b33565b509495945050505050565b5f823561011e19833603018112611af1575f80fd5b5f808335601e19843603018112611b91575f80fd5b830160208101925035905067ffffffffffffffff811115611bb0575f80fd5b8036038213156115bb575f80fd5b803560ff8116811461166c575f80fd5b5f8383855260208086019550808560051b830101845f5b87811015611ca357848303601f19018952611c008288611add565b60a063ffffffff611c1083611b12565b16855285820135611c208161164d565b6001600160a01b0316858701526040611c3b83820184611a51565b8383890152611c4d8489018284611a96565b93505050506060611c6081840184611b7c565b87840383890152611c728482846119f1565b93505050506080808301359250611c8883611afa565b91151594909101939093529783019790830190600101611be5565b5090979650505050505050565b5f610120611ccf84611cc185611ac6565b67ffffffffffffffff169052565b611cdb60208401611ac6565b67ffffffffffffffff166020850152611cf660408401611661565b6001600160a01b03166040850152611d1060608401611b07565b15156060850152611d2360808401611661565b6001600160a01b0316608085015260a08381013590850152611d4860c0840184611b7c565b8260c0870152611d5b83870182846119f1565b92505050611d6b60e08401611bbe565b60ff1660e0850152610100611d8284820185611a51565b86840383880152611d94848284611bce565b979650505050505050565b5f6020808352611daf8485611a51565b604083860152611dc3606086018284611a96565b9150508185013560be19863603018112611ddb575f80fd5b8581019050601f19858303016040860152803582528281013583830152611e0460408201611ac6565b67ffffffffffffffff808216604085015280611e2260608501611ac6565b1660608501525050611e376080820182611add565b60c06080840152803560c084015283810135935061ffff8416808514611e5b575f80fd5b60e084015260408101359350611e7084611afa565b921515610100830152606083013592611e8884611afa565b831515610120840152611e9e6080820182611a51565b9450905060a0610140840152611eb961016084018583611b25565b935050611ec960a0820182611b67565b905081830360a08301526107e18382611cb0565b5f60208284031215611eed575f80fd5b815161086381611afa565b5f8154611f04816118b3565b808552602060018381168015611f215760018114611f3b57611f66565b60ff1985168884015283151560051b880183019550611f66565b865f52825f205f5b85811015611f5e5781548a8201860152908301908401611f43565b890184019650505b505050505092915050565b828152604060208201525f6116d46040830184611ef8565b634e487b7160e01b5f52603260045260245ffd5b5f823560be19833603018112611fb1575f80fd5b9190910192915050565b5f8235609e19833603018112611fb1575f80fd5b5f82611fe957634e487b7160e01b5f52601260045260245ffd5b500490565b8385823760609290921b6bffffffffffffffffffffffff1916919092019081526014810191909152603401919050565b848152606060208201525f6120376060830185876119f1565b905082604083015295945050505050565b8181038181111561157757611577611550565b8381525f6020606060208401526120756060840186611ef8565b838103604085015284548082525f8681526020808220930191905b818110156120b55783546001600160a01b031683526001938401939285019201612090565b509098975050505050505050565b5f602082840312156120d3575f80fd5b81516108638161164d56fea26469706673582212204eecdb9a78f06df9da0271b72d16a680ec56594ec6c8b8900eea480aa8d292f764736f6c63430008190033","abi":[{"inputs":[{"internalType":"address","name":"initialOwner","type":"address"},{"internalType":"address","name":"_badgeNft","type":"address"},{"internalType":"address","name":"_xrplReceiver","type":"address"}],"stateMutability":"nonpayable","type":"constructor"},{"inputs":[{"internalType":"address","name":"owner","type":"address"}],"name":"OwnableInvalidOwner","type":"error"},{"inputs":[{"internalType":"address","name":"account","type":"address"}],"name":"OwnableUnauthorizedAccount","type":"error"},{"inputs":[],"name":"ReentrancyGuardReentrantCall","type":"error"},{"anonymous":false,"inputs":[{"indexed":true,"internalType":"address","name":"donor","type":"address"},{"indexed":false,"internalType":"uint256","name":"badgeId","type":"uint256"},{"indexed":false,"internalType":"uint256","name":"totalContributions","type":"uint256"}],"name":"BadgeAwarded","type":"event"},{"anonymous":false,"inputs":[{"indexed":true,"internalType":"address","name":"donor","type":"address"},{"indexed":false,"internalType":"uint256","name":"amountWei","type":"uint256"},{"indexed":false,"internalType":"uint256","name":"time","type":"uint256"}],"name":"DonationMade","type":"event"},{"anonymous":false,"inputs":[{"indexed":true,"internalType":"address","name":"previousOwner","type":"address"},{"indexed":true,"internalType":"address","name":"newOwner","type":"address"}],"name":"OwnershipTransferred","type":"event"},{"anonymous":false,"inputs":[{"indexed":true,"internalType":"uint256","name":"requestId","type":"uint256"},{"indexed":false,"internalType":"string","name":"invoiceId","type":"string"},{"indexed":false,"internalType":"uint256","name":"amountWei","type":"uint256"},{"indexed":false,"internalType":"string","name":"hospitalXrpl","type":"string"}],"name":"RequestCreated","type":"event"},{"anonymous":false,"inputs":[{"indexed":true,"internalType":"uint256","name":"requestId","type":"uint256"},{"indexed":false,"internalType":"uint256","name":"amountWei","type":"uint256"},{"indexed":false,"internalType":"string","name":"hospitalXrpl","type":"string"},{"indexed":false,"internalType":"address[]","name":"contributors","type":"address[]"}],"name":"RequestFunded","type":"event"},{"anonymous":false,"inputs":[{"indexed":true,"internalType":"uint256","name":"requestId","type":"uint256"},{"indexed":false,"internalType":"uint256","name":"amountWei","type":"uint256"},{"indexed":false,"internalType":"string","name":"hospitalXrpl","type":"string"}],"name":"RequestPaidOut","type":"event"},{"anonymous":false,"inputs":[{"indexed":true,"internalType":"address","name":"donor","type":"address"},{"indexed":false,"internalType":"uint256","name":"xrplAmount","type":"uint256"},{"indexed":false,"internalType":"string","name":"xrplTxHash","type":"string"},{"indexed":false,"internalType":"uint256","name":"flareAmount","type":"uint256"}],"name":"XrplDonationReceived","type":"event"},{"inputs":[],"name":"MIN_DONATION_AMOUNT","outputs":[{"internalType":"uint256","name":"","type":"uint256"}],"stateMutability":"view","type":"function"},{"inputs":[],"name":"badgeNft","outputs":[{"internalType":"contract BadgeNFT","name":"","type":"address"}],"stateMutability":"view","type":"function"},{"inputs":[{"internalType":"string","name":"invoiceId","type":"string"},{"internalType":"uint256","name":"amountWei","type":"uint256"},{"internalType":"string","name":"hospitalXrpl","type":"string"}],"name":"createRequest","outputs":[{"internalType":"uint256","name":"","type":"uint256"}],"stateMutability":"nonpayable","type":"function"},{"inputs":[{"internalType":"bytes32","name":"","type":"bytes32"}],"name":"crossChainDonations","outputs":[{"internalType":"address","name":"donor","type":"address"},{"internalType":"uint256","name":"amountWei","type":"uint256"},{"internalType":"uint256","name":"xrplAmount","type":"uint256"},{"internalType":"uint256","name":"timestamp","type":"uint256"},{"internalType":"string","name":"xrplTxHash","type":"string"},{"internalType":"bool","name":"processed","type":"bool"}],"stateMutability":"view","type":"function"},{"inputs":[],"name":"donate","outputs":[],"stateMutability":"payable","type":"function"},{"inputs":[{"internalType":"uint256","name":"","type":"uint256"}],"name":"donationHashes","outputs":[{"internalType":"bytes32","name":"","type":"bytes32"}],"stateMutability":"view","type":"function"},{"inputs":[{"internalType":"address","name":"","type":"address"}],"name":"donorFlareContributions","outputs":[{"internalType":"uint256","name":"","type":"uint256"}],"stateMutability":"view","type":"function"},{"inputs":[{"internalType":"address","name":"","type":"address"}],"name":"donorXrplContributions","outputs":[{"internalType":"uint256","name":"","type":"uint256"}],"stateMutability":"view","type":"function"},{"inputs":[{"internalType":"uint256","name":"requestId","type":"uint256"}],"name":"fundRequest","outputs":[],"stateMutability":"nonpayable","type":"function"},{"inputs":[{"internalType":"address","name":"donor","type":"address"}],"name":"getDonorImpact","outputs":[{"internalType":"uint256","name":"xrplContributions","type":"uint256"},{"internalType":"uint256","name":"flareContributions","type":"uint256"},{"internalType":"uint256","name":"totalContributions","type":"uint256"},{"internalType":"uint256","name":"requestsHelped","type":"uint256"}],"stateMutability":"view","type":"function"},{"inputs":[],"name":"getXrplPaymentDetails","outputs":[{"internalType":"address","name":"receiver","type":"address"},{"internalType":"string","name":"destinationTag","type":"string"},{"internalType":"uint256","name":"minAmount","type":"uint256"}],"stateMutability":"view","type":"function"},{"inputs":[{"components":[{"internalType":"bytes32[]","name":"merkleProof","type":"bytes32[]"},{"components":[{"internalType":"bytes32","name":"attestationType","type":"bytes32"},{"internalType":"bytes32","name":"sourceId","type":"bytes32"},{"internalType":"uint64","name":"votingRound","type":"uint64"},{"internalType":"uint64","name":"lowestUsedTimestamp","type":"uint64"},{"components":[{"internalType":"bytes32","name":"transactionHash","type":"bytes32"},{"internalType":"uint16","name":"requiredConfirmations","type":"uint16"},{"internalType":"bool","name":"provideInput","type":"bool"},{"internalType":"bool","name":"listEvents","type":"bool"},{"internalType":"uint32[]","name":"logIndices","type":"uint32[]"}],"internalType":"struct IEVMTransaction.RequestBody","name":"requestBody","type":"tuple"},{"components":[{"internalType":"uint64","name":"blockNumber","type":"uint64"},{"internalType":"uint64","name":"timestamp","type":"uint64"},{"internalType":"address","name":"sourceAddress","type":"address"},{"internalType":"bool","name":"isDeployment","type":"bool"},{"internalType":"address","name":"receivingAddress","type":"address"},{"internalType":"uint256","name":"value","type":"uint256"},{"internalType":"bytes","name":"input","type":"bytes"},{"internalType":"uint8","name":"status","type":"uint8"},{"components":[{"internalType":"uint32","name":"logIndex","type":"uint32"},{"internalType":"address","name":"emitterAddress","type":"address"},{"internalType":"bytes32[]","name":"topics","type":"bytes32[]"},{"internalType":"bytes","name":"data","type":"bytes"},{"internalType":"bool","name":"removed","type":"bool"}],"internalType":"struct IEVMTransaction.Event[]","name":"events","type":"tuple[]"}],"internalType":"struct IEVMTransaction.ResponseBody","name":"responseBody","type":"tuple"}],"internalType":"struct IEVMTransaction.Response","name":"data","type":"tuple"}],"internalType":"struct IEVMTransaction.Proof","name":"transaction","type":"tuple"}],"name":"isXrplTransactionProofValid","outputs":[{"internalType":"bool","name":"","type":"bool"}],"stateMutability":"view","type":"function"},{"inputs":[{"internalType":"uint256","name":"requestId","type":"uint256"}],"name":"markPaidOut","outputs":[],"stateMutability":"nonpayable","type":"function"},{"inputs":[],"name":"nextRequestId","outputs":[{"internalType":"uint256","name":"","type":"uint256"}],"stateMutability":"view","type":"function"},{"inputs":[],"name":"owner","outputs":[{"internalType":"address","name":"","type":"address"}],"stateMutability":"view","type":"function"},{"inputs":[{"components":[{"internalType":"bytes32[]","name":"merkleProof","type":"bytes32[]"},{"components":[{"internalType":"bytes32","name":"attestationType","type":"bytes32"},{"internalType":"bytes32","name":"sourceId","type":"bytes32"},{"internalType":"uint64","name":"votingRound","type":"uint64"},{"internalType":"uint64","name":"lowestUsedTimestamp","type":"uint64"},{"components":[{"internalType":"bytes32","name":"transactionHash","type":"bytes32"},{"internalType":"uint16","name":"requiredConfirmations","type":"uint16"},{"internalType":"bool","name":"provideInput","type":"bool"},{"internalType":"bool","name":"listEvents","type":"bool"},{"internalType":"uint32[]","name":"logIndices","type":"uint32[]"}],"internalType":"struct IEVMTransaction.RequestBody","name":"requestBody","type":"tuple"},{"components":[{"internalType":"uint64","name":"blockNumber","type":"uint64"},{"internalType":"uint64","name":"timestamp","type":"uint64"},{"internalType":"address","name":"sourceAddress","type":"address"},{"internalType":"bool","name":"isDeployment","type":"bool"},{"internalType":"address","name":"receivingAddress","type":"address"},{"internalType":"uint256","name":"value","type":"uint256"},{"internalType":"bytes","name":"input","type":"bytes"},{"internalType":"uint8","name":"status","type":"uint8"},{"components":[{"internalType":"uint32","name":"logIndex","type":"uint32"},{"internalType":"address","name":"emitterAddress","type":"address"},{"internalType":"bytes32[]","name":"topics","type":"bytes32[]"},{"internalType":"bytes","name":"data","type":"bytes"},{"internalType":"bool","name":"removed","type":"bool"}],"internalType":"struct IEVMTransaction.Event[]","name":"events","type":"tuple[]"}],"internalType":"struct IEVMTransaction.ResponseBody","name":"responseBody","type":"tuple"}],"internalType":"struct IEVMTransaction.Response","name":"data","type":"tuple"}],"internalType":"struct IEVMTransaction.Proof","name":"_transaction","type":"tuple"},{"internalType":"string","name":"xrplTxHash","type":"string"},{"internalType":"uint256","name":"xrplAmount","type":"uint256"}],"name":"processXrplPayment","outputs":[],"stateMutability":"nonpayable","type":"function"},{"inputs":[{"internalType":"bytes32","name":"","type":"bytes32"}],"name":"processedXrplTransactions","outputs":[{"internalType":"bool","name":"","type":"bool"}],"stateMutability":"view","type":"function"},{"inputs":[],"name":"renounceOwnership","outputs":[],"stateMutability":"nonpayable","type":"function"},{"inputs":[{"internalType":"uint256","name":"","type":"uint256"}],"name":"requests","outputs":[{"internalType":"string","name":"invoiceId","type":"string"},{"internalType":"address","name":"creator","type":"address"},{"internalType":"string","name":"hospitalXrpl","type":"string"},{"internalType":"uint256","name":"amountWei","type":"uint256"},{"internalType":"bool","name":"funded","type":"bool"},{"internalType":"bool","name":"paidOut","type":"bool"},{"internalType":"uint256","name":"fundedAt","type":"uint256"}],"stateMutability":"view","type":"function"},{"inputs":[],"name":"totalPool","outputs":[{"internalType":"uint256","name":"","type":"uint256"}],"stateMutability":"view","type":"function"},{"inputs":[],"name":"totalXrplDonations","outputs":[{"internalType":"uint256","name":"","type":"uint256"}],"stateMutability":"view","type":"function"},{"inputs":[{"internalType":"address","name":"newOwner","type":"address"}],"name":"transferOwnership","outputs":[],"stateMutability":"nonpayable","type":"function"},{"inputs":[],"name":"xrplDestinationTag","outputs":[{"internalType":"string","name":"","type":"string"}],"stateMutability":"view","type":"function"},{"inputs":[],"name":"xrplReceiverAddress","outputs":[{"internalType":"address","name":"","type":"address"}],"stateMutability":"view","type":"function"},{"stateMutability":"payable","type":"receive"}]}