{"address":"0xa98ef181d98760c3f02965BBbA8b0A26fac52082","bytecode":"0x6080604052348015600e575f80fd5b503380603357604051631e4fbdf760e01b81525f600482015260240160405180910390fd5b603a81603f565b50608e565b5f80546001600160a01b038381166001600160a01b0319831681178455604051919092169283917f8be0079c531659141344cd1fd0a4f28419497f9722a3daafe3b4186f6b6457e09190a35050565b610fc68061009b5f395ff3fe60806040526004361061009d575f3560e01c806381d12c581161006257806381d12c58146101935780638da5cb5b146101c4578063c58343ef146101ea578063ecfb49a314610216578063ed88c68e1461022b578063f2fde38b14610233575f80fd5b80632d9e33c8146100f85780634681fdd21461012a5780635d97b3cd1461014b5780636a84a9851461016a578063715018a61461017f575f80fd5b366100f4573460025f8282546100b39190610acf565b90915550506040805134815242602082015233917fd97bcdf12fa1d5342fc942da5eadf35c7597f34f8da7274c2b0d2ad979842679910160405180910390a2005b5f80fd5b348015610103575f80fd5b50610117610112366004610b2d565b610252565b6040519081526020015b60405180910390f35b348015610135575f80fd5b50610149610144366004610ba1565b610453565b005b348015610156575f80fd5b50610149610165366004610ba1565b61054f565b348015610175575f80fd5b5061011760015481565b34801561018a575f80fd5b50610149610659565b34801561019e575f80fd5b506101b26101ad366004610ba1565b61066c565b60405161012196959493929190610bfb565b3480156101cf575f80fd5b505f546040516001600160a01b039091168152602001610121565b3480156101f5575f80fd5b50610209610204366004610ba1565b6107c1565b6040516101219190610c4f565b348015610221575f80fd5b5061011760025481565b610149610970565b34801561023e575f80fd5b5061014961024d366004610ccc565b610a03565b600180545f918291908261026583610cf9565b909155506040805160e06020601f8b01819004028201810190925260c081018981529293509182918a908a90819085018382808284375f920191909152505050908252503360208083019190915260408051601f880183900483028101830182528781529201919087908790819084018382808284375f9201829052509385525050506020808301899052604080840183905260609093018290528482526003905220815181906103169082610da9565b5060208201516001820180546001600160a01b0319166001600160a01b03909216919091179055604082015160028201906103519082610da9565b506060820151600382015560808201516004909101805460a09093015115156101000261ff00199215159290921661ffff199093169290921717905560405181907fe0b645c4fd45ece69cc31b0f8633c801e9e2b98a2b1a429efa597f1dace80f60906103c7908a908a908a908a908a90610e91565b60405180910390a28460025410610449575f818152600360205260408120600401805460ff1916600117905560028054879290610405908490610ec9565b92505081905550807fa0a8e1ffcff634d7cf53be8f6ee1bd326599ef30d9b20d4ac11fdf02062a669286868660405161044093929190610edc565b60405180910390a25b9695505050505050565b61045b610a40565b5f818152600360205260409020600481015460ff166104ae5760405162461bcd60e51b815260206004820152600a602482015269139bdd08199d5b99195960b21b60448201526064015b60405180910390fd5b6004810154610100900460ff16156104f75760405162461bcd60e51b815260206004820152600c60248201526b105b1c9958591e481c185a5960a21b60448201526064016104a5565b60048101805461ff001916610100179055600381015460405183917f1d6c1911dff15af6ed91890c881c1b34646051b66fd5a2bde246eb7c8ee0e7569161054391906002860190610efe565b60405180910390a25050565b610557610a40565b5f818152600360205260409020600481015460ff16156105aa5760405162461bcd60e51b815260206004820152600e60248201526d105b1c9958591e48199d5b99195960921b60448201526064016104a5565b806003015460025410156105f45760405162461bcd60e51b8152602060048201526011602482015270125b9cdd59999a58da595b9d081c1bdbdb607a1b60448201526064016104a5565b60048101805460ff191660011790556003810154600280545f90610619908490610ec9565b92505081905550817fa0a8e1ffcff634d7cf53be8f6ee1bd326599ef30d9b20d4ac11fdf02062a6692826003015483600201604051610543929190610efe565b610661610a40565b61066a5f610a6c565b565b60036020525f908152604090208054819061068690610d25565b80601f01602080910402602001604051908101604052809291908181526020018280546106b290610d25565b80156106fd5780601f106106d4576101008083540402835291602001916106fd565b820191905f5260205f20905b8154815290600101906020018083116106e057829003601f168201915b505050600184015460028501805494956001600160a01b0390921694919350915061072790610d25565b80601f016020809104026020016040519081016040528092919081815260200182805461075390610d25565b801561079e5780601f106107755761010080835404028352916020019161079e565b820191905f5260205f20905b81548152906001019060200180831161078157829003601f168201915b50505050600383015460049093015491929160ff80821692506101009091041686565b6040805160c08101825260608082525f6020830181905292820181905281018290526080810182905260a08101919091525f8281526003602052604090819020815160c0810190925280548290829061081990610d25565b80601f016020809104026020016040519081016040528092919081815260200182805461084590610d25565b80156108905780601f1061086757610100808354040283529160200191610890565b820191905f5260205f20905b81548152906001019060200180831161087357829003601f168201915b505050918352505060018201546001600160a01b031660208201526002820180546040909201916108c090610d25565b80601f01602080910402602001604051908101604052809291908181526020018280546108ec90610d25565b80156109375780601f1061090e57610100808354040283529160200191610937565b820191905f5260205f20905b81548152906001019060200180831161091a57829003601f168201915b50505091835250506003820154602082015260049091015460ff8082161515604084015261010090910416151560609091015292915050565b5f34116109b15760405162461bcd60e51b815260206004820152600f60248201526e4d7573742073656e642076616c756560881b60448201526064016104a5565b3460025f8282546109c29190610acf565b90915550506040805134815242602082015233917fd97bcdf12fa1d5342fc942da5eadf35c7597f34f8da7274c2b0d2ad979842679910160405180910390a2565b610a0b610a40565b6001600160a01b038116610a3457604051631e4fbdf760e01b81525f60048201526024016104a5565b610a3d81610a6c565b50565b5f546001600160a01b0316331461066a5760405163118cdaa760e01b81523360048201526024016104a5565b5f80546001600160a01b038381166001600160a01b0319831681178455604051919092169283917f8be0079c531659141344cd1fd0a4f28419497f9722a3daafe3b4186f6b6457e09190a35050565b634e487b7160e01b5f52601160045260245ffd5b80820180821115610ae257610ae2610abb565b92915050565b5f8083601f840112610af8575f80fd5b50813567ffffffffffffffff811115610b0f575f80fd5b602083019150836020828501011115610b26575f80fd5b9250929050565b5f805f805f60608688031215610b41575f80fd5b853567ffffffffffffffff80821115610b58575f80fd5b610b6489838a01610ae8565b9097509550602088013594506040880135915080821115610b83575f80fd5b50610b9088828901610ae8565b969995985093965092949392505050565b5f60208284031215610bb1575f80fd5b5035919050565b5f81518084525f5b81811015610bdc57602081850181015186830182015201610bc0565b505f602082860101526020601f19601f83011685010191505092915050565b60c081525f610c0d60c0830189610bb8565b6001600160a01b03881660208401528281036040840152610c2e8188610bb8565b606084019690965250509115156080830152151560a0909101529392505050565b602081525f825160c06020840152610c6a60e0840182610bb8565b60208501516001600160a01b0316604085810191909152850151848203601f19016060860152909150610c9d8282610bb8565b915050606084015160808401526080840151151560a084015260a0840151151560c08401528091505092915050565b5f60208284031215610cdc575f80fd5b81356001600160a01b0381168114610cf2575f80fd5b9392505050565b5f60018201610d0a57610d0a610abb565b5060010190565b634e487b7160e01b5f52604160045260245ffd5b600181811c90821680610d3957607f821691505b602082108103610d5757634e487b7160e01b5f52602260045260245ffd5b50919050565b601f821115610da457805f5260205f20601f840160051c81016020851015610d825750805b601f840160051c820191505b81811015610da1575f8155600101610d8e565b50505b505050565b815167ffffffffffffffff811115610dc357610dc3610d11565b610dd781610dd18454610d25565b84610d5d565b602080601f831160018114610e0a575f8415610df35750858301515b5f19600386901b1c1916600185901b178555610e61565b5f85815260208120601f198616915b82811015610e3857888601518255948401946001909101908401610e19565b5085821015610e5557878501515f19600388901b60f8161c191681555b505060018460011b0185555b505050505050565b81835281816020850137505f828201602090810191909152601f909101601f19169091010190565b606081525f610ea4606083018789610e69565b8560208401528281036040840152610ebd818587610e69565b98975050505050505050565b81810381811115610ae257610ae2610abb565b838152604060208201525f610ef5604083018486610e69565b95945050505050565b8281525f6020604060208401525f8454610f1781610d25565b806040870152606060018084165f8114610f385760018114610f5457610f81565b60ff19851660608a0152606084151560051b8a01019550610f81565b895f5260205f205f5b85811015610f785781548b8201860152908301908801610f5d565b8a016060019650505b5093999850505050505050505056fea2646970667358221220267e5491669ded18536c2e77da16c33086cc2ff3252fac918144d3cc0def83bf64736f6c63430008190033","abi":[{"inputs":[],"stateMutability":"nonpayable","type":"constructor"},{"inputs":[{"internalType":"address","name":"owner","type":"address"}],"name":"OwnableInvalidOwner","type":"error"},{"inputs":[{"internalType":"address","name":"account","type":"address"}],"name":"OwnableUnauthorizedAccount","type":"error"},{"anonymous":false,"inputs":[{"indexed":true,"internalType":"address","name":"donor","type":"address"},{"indexed":false,"internalType":"uint256","name":"amountWei","type":"uint256"},{"indexed":false,"internalType":"uint256","name":"time","type":"uint256"}],"name":"DonationMade","type":"event"},{"anonymous":false,"inputs":[{"indexed":true,"internalType":"address","name":"previousOwner","type":"address"},{"indexed":true,"internalType":"address","name":"newOwner","type":"address"}],"name":"OwnershipTransferred","type":"event"},{"anonymous":false,"inputs":[{"indexed":true,"internalType":"uint256","name":"requestId","type":"uint256"},{"indexed":false,"internalType":"string","name":"invoiceId","type":"string"},{"indexed":false,"internalType":"uint256","name":"amountWei","type":"uint256"},{"indexed":false,"internalType":"string","name":"hospitalXrpl","type":"string"}],"name":"RequestCreated","type":"event"},{"anonymous":false,"inputs":[{"indexed":true,"internalType":"uint256","name":"requestId","type":"uint256"},{"indexed":false,"internalType":"uint256","name":"amountWei","type":"uint256"},{"indexed":false,"internalType":"string","name":"hospitalXrpl","type":"string"}],"name":"RequestFunded","type":"event"},{"anonymous":false,"inputs":[{"indexed":true,"internalType":"uint256","name":"requestId","type":"uint256"},{"indexed":false,"internalType":"uint256","name":"amountWei","type":"uint256"},{"indexed":false,"internalType":"string","name":"hospitalXrpl","type":"string"}],"name":"RequestPaidOut","type":"event"},{"inputs":[{"internalType":"string","name":"invoiceId","type":"string"},{"internalType":"uint256","name":"amountWei","type":"uint256"},{"internalType":"string","name":"hospitalXrpl","type":"string"}],"name":"createRequest","outputs":[{"internalType":"uint256","name":"","type":"uint256"}],"stateMutability":"nonpayable","type":"function"},{"inputs":[],"name":"donate","outputs":[],"stateMutability":"payable","type":"function"},{"inputs":[{"internalType":"uint256","name":"requestId","type":"uint256"}],"name":"fundRequest","outputs":[],"stateMutability":"nonpayable","type":"function"},{"inputs":[{"internalType":"uint256","name":"id","type":"uint256"}],"name":"getRequest","outputs":[{"components":[{"internalType":"string","name":"invoiceId","type":"string"},{"internalType":"address","name":"creator","type":"address"},{"internalType":"string","name":"hospitalXrpl","type":"string"},{"internalType":"uint256","name":"amountWei","type":"uint256"},{"internalType":"bool","name":"funded","type":"bool"},{"internalType":"bool","name":"paidOut","type":"bool"}],"internalType":"struct DonationPool.Request","name":"","type":"tuple"}],"stateMutability":"view","type":"function"},{"inputs":[{"internalType":"uint256","name":"requestId","type":"uint256"}],"name":"markPaidOut","outputs":[],"stateMutability":"nonpayable","type":"function"},{"inputs":[],"name":"nextRequestId","outputs":[{"internalType":"uint256","name":"","type":"uint256"}],"stateMutability":"view","type":"function"},{"inputs":[],"name":"owner","outputs":[{"internalType":"address","name":"","type":"address"}],"stateMutability":"view","type":"function"},{"inputs":[],"name":"renounceOwnership","outputs":[],"stateMutability":"nonpayable","type":"function"},{"inputs":[{"internalType":"uint256","name":"","type":"uint256"}],"name":"requests","outputs":[{"internalType":"string","name":"invoiceId","type":"string"},{"internalType":"address","name":"creator","type":"address"},{"internalType":"string","name":"hospitalXrpl","type":"string"},{"internalType":"uint256","name":"amountWei","type":"uint256"},{"internalType":"bool","name":"funded","type":"bool"},{"internalType":"bool","name":"paidOut","type":"bool"}],"stateMutability":"view","type":"function"},{"inputs":[],"name":"totalPool","outputs":[{"internalType":"uint256","name":"","type":"uint256"}],"stateMutability":"view","type":"function"},{"inputs":[{"internalType":"address","name":"newOwner","type":"address"}],"name":"transferOwnership","outputs":[],"stateMutability":"nonpayable","type":"function"},{"stateMutability":"payable","type":"receive"}]}